{
  "_format": "hh-sol-artifact-1",
  "contractName": "Marketplace",
  "sourceName": "src/backend/contracts/Marketplace.sol",
  "abi": [
    {
      "inputs": [
        {
          "internalType": "uint256",
          "name": "_feePercent",
          "type": "uint256"
        }
      ],
      "stateMutability": "nonpayable",
      "type": "constructor"
    },
    {
      "inputs": [],
      "name": "ReentrancyGuardReentrantCall",
      "type": "error"
    },
    {
      "anonymous": false,
      "inputs": [
        {
          "indexed": false,
          "internalType": "uint256",
          "name": "intemId",
          "type": "uint256"
        },
        {
          "indexed": true,
          "internalType": "address",
          "name": "nft",
          "type": "address"
        },
        {
          "indexed": false,
          "internalType": "uint256",
          "name": "tokenId",
          "type": "uint256"
        },
        {
          "indexed": false,
          "internalType": "uint256",
          "name": "price",
          "type": "uint256"
        },
        {
          "indexed": true,
          "internalType": "address",
          "name": "seller",
          "type": "address"
        },
        {
          "indexed": true,
          "internalType": "address",
          "name": "buyer",
          "type": "address"
        }
      ],
      "name": "Bought",
      "type": "event"
    },
    {
      "anonymous": false,
      "inputs": [
        {
          "indexed": false,
          "internalType": "uint256",
          "name": "itemId",
          "type": "uint256"
        },
        {
          "indexed": true,
          "internalType": "address",
          "name": "nft",
          "type": "address"
        },
        {
          "indexed": false,
          "internalType": "uint256",
          "name": "tokenId",
          "type": "uint256"
        },
        {
          "indexed": false,
          "internalType": "uint256",
          "name": "price",
          "type": "uint256"
        },
        {
          "indexed": true,
          "internalType": "address",
          "name": "seller",
          "type": "address"
        }
      ],
      "name": "Offered",
      "type": "event"
    },
    {
      "inputs": [],
      "name": "feeAccount",
      "outputs": [
        {
          "internalType": "address payable",
          "name": "",
          "type": "address"
        }
      ],
      "stateMutability": "view",
      "type": "function"
    },
    {
      "inputs": [],
      "name": "feePercent",
      "outputs": [
        {
          "internalType": "uint256",
          "name": "",
          "type": "uint256"
        }
      ],
      "stateMutability": "view",
      "type": "function"
    },
    {
      "inputs": [
        {
          "internalType": "uint256",
          "name": "_itemId",
          "type": "uint256"
        }
      ],
      "name": "getItem",
      "outputs": [
        {
          "components": [
            {
              "internalType": "uint256",
              "name": "itemId",
              "type": "uint256"
            },
            {
              "internalType": "contract IERC721",
              "name": "nft",
              "type": "address"
            },
            {
              "internalType": "uint256",
              "name": "tokenId",
              "type": "uint256"
            },
            {
              "internalType": "uint256",
              "name": "price",
              "type": "uint256"
            },
            {
              "internalType": "address payable",
              "name": "seller",
              "type": "address"
            },
            {
              "internalType": "bool",
              "name": "sold",
              "type": "bool"
            }
          ],
          "internalType": "struct Marketplace.Item",
          "name": "",
          "type": "tuple"
        }
      ],
      "stateMutability": "view",
      "type": "function"
    },
    {
      "inputs": [
        {
          "internalType": "uint256",
          "name": "_itemId",
          "type": "uint256"
        }
      ],
      "name": "getTotalPrice",
      "outputs": [
        {
          "internalType": "uint256",
          "name": "",
          "type": "uint256"
        }
      ],
      "stateMutability": "view",
      "type": "function"
    },
    {
      "inputs": [],
      "name": "itemCount",
      "outputs": [
        {
          "internalType": "uint256",
          "name": "",
          "type": "uint256"
        }
      ],
      "stateMutability": "view",
      "type": "function"
    },
    {
      "inputs": [
        {
          "internalType": "uint256",
          "name": "",
          "type": "uint256"
        }
      ],
      "name": "items",
      "outputs": [
        {
          "internalType": "uint256",
          "name": "itemId",
          "type": "uint256"
        },
        {
          "internalType": "contract IERC721",
          "name": "nft",
          "type": "address"
        },
        {
          "internalType": "uint256",
          "name": "tokenId",
          "type": "uint256"
        },
        {
          "internalType": "uint256",
          "name": "price",
          "type": "uint256"
        },
        {
          "internalType": "address payable",
          "name": "seller",
          "type": "address"
        },
        {
          "internalType": "bool",
          "name": "sold",
          "type": "bool"
        }
      ],
      "stateMutability": "view",
      "type": "function"
    },
    {
      "inputs": [],
      "name": "itemsCount",
      "outputs": [
        {
          "internalType": "uint256",
          "name": "",
          "type": "uint256"
        }
      ],
      "stateMutability": "view",
      "type": "function"
    },
    {
      "inputs": [
        {
          "internalType": "contract IERC721",
          "name": "_nft",
          "type": "address"
        },
        {
          "internalType": "uint256",
          "name": "_tokenId",
          "type": "uint256"
        },
        {
          "internalType": "uint256",
          "name": "_price",
          "type": "uint256"
        }
      ],
      "name": "makeItem",
      "outputs": [],
      "stateMutability": "nonpayable",
      "type": "function"
    },
    {
      "inputs": [
        {
          "internalType": "uint256",
          "name": "_itemId",
          "type": "uint256"
        }
      ],
      "name": "purchaseItem",
      "outputs": [],
      "stateMutability": "payable",
      "type": "function"
    }
  ],
  "bytecode": "0x60c06040523480156200001157600080fd5b50604051620013d7380380620013d78339818101604052810190620000379190620000c2565b60016000819055503373ffffffffffffffffffffffffffffffffffffffff1660808173ffffffffffffffffffffffffffffffffffffffff16815250508060a0818152505050620000f4565b600080fd5b6000819050919050565b6200009c8162000087565b8114620000a857600080fd5b50565b600081519050620000bc8162000091565b92915050565b600060208284031215620000db57620000da62000082565b5b6000620000eb84828501620000ab565b91505092915050565b60805160a0516112af6200012860003960008181610376015261042701526000818161034c015261060701526112af6000f3fe6080604052600436106100865760003560e01c8063bfb231d211610059578063bfb231d214610149578063ca7dd3751461018b578063d38ea5bf146101c8578063e2c03ace146101e4578063fa00afc71461020f57610086565b80633129e7731461008b57806365e17c9d146100c85780636bfb0d01146100f35780637fd6f15c1461011e575b600080fd5b34801561009757600080fd5b506100b260048036038101906100ad9190610b91565b610238565b6040516100bf9190610d03565b60405180910390f35b3480156100d457600080fd5b506100dd61034a565b6040516100ea9190610d2d565b60405180910390f35b3480156100ff57600080fd5b5061010861036e565b6040516101159190610d57565b60405180910390f35b34801561012a57600080fd5b50610133610374565b6040516101409190610d57565b60405180910390f35b34801561015557600080fd5b50610170600480360381019061016b9190610b91565b610398565b60405161018296959493929190610d90565b60405180910390f35b34801561019757600080fd5b506101b260048036038101906101ad9190610b91565b610421565b6040516101bf9190610d57565b60405180910390f35b6101e260048036038101906101dd9190610b91565b610484565b005b3480156101f057600080fd5b506101f961080c565b6040516102069190610d57565b60405180910390f35b34801561021b57600080fd5b5061023660048036038101906102319190610e41565b610816565b005b610240610af2565b600260008381526020019081526020016000206040518060c0016040529081600082015481526020016001820160009054906101000a900473ffffffffffffffffffffffffffffffffffffffff1673ffffffffffffffffffffffffffffffffffffffff1673ffffffffffffffffffffffffffffffffffffffff16815260200160028201548152602001600382015481526020016004820160009054906101000a900473ffffffffffffffffffffffffffffffffffffffff1673ffffffffffffffffffffffffffffffffffffffff1673ffffffffffffffffffffffffffffffffffffffff1681526020016004820160149054906101000a900460ff1615151515815250509050919050565b7f000000000000000000000000000000000000000000000000000000000000000081565b60015481565b7f000000000000000000000000000000000000000000000000000000000000000081565b60026020528060005260406000206000915090508060000154908060010160009054906101000a900473ffffffffffffffffffffffffffffffffffffffff16908060020154908060030154908060040160009054906101000a900473ffffffffffffffffffffffffffffffffffffffff16908060040160149054906101000a900460ff16905086565b600060647f000000000000000000000000000000000000000000000000000000000000000060646104529190610ec3565b60026000858152602001908152602001600020600301546104739190610ef7565b61047d9190610f68565b9050919050565b61048c610aa2565b600061049782610421565b905060006002600084815260200190815260200160002090506000831180156104c257506001548311155b610501576040517f08c379a00000000000000000000000000000000000000000000000000000000081526004016104f890610ff6565b60405180910390fd5b81341015610544576040517f08c379a000000000000000000000000000000000000000000000000000000000815260040161053b90611088565b60405180910390fd5b8060040160149054906101000a900460ff1615610596576040517f08c379a000000000000000000000000000000000000000000000000000000000815260040161058d906110f4565b60405180910390fd5b8060040160009054906101000a900473ffffffffffffffffffffffffffffffffffffffff1673ffffffffffffffffffffffffffffffffffffffff166108fc82600301549081150290604051600060405180830381858888f19350505050158015610604573d6000803e3d6000fd5b507f000000000000000000000000000000000000000000000000000000000000000073ffffffffffffffffffffffffffffffffffffffff166108fc82600301548461064f9190611114565b9081150290604051600060405180830381858888f1935050505015801561067a573d6000803e3d6000fd5b5060018160040160146101000a81548160ff0219169083151502179055508060010160009054906101000a900473ffffffffffffffffffffffffffffffffffffffff1673ffffffffffffffffffffffffffffffffffffffff166323b872dd303384600201546040518463ffffffff1660e01b81526004016106fd93929190611157565b600060405180830381600087803b15801561071757600080fd5b505af115801561072b573d6000803e3d6000fd5b505050503373ffffffffffffffffffffffffffffffffffffffff168160040160009054906101000a900473ffffffffffffffffffffffffffffffffffffffff1673ffffffffffffffffffffffffffffffffffffffff168260010160009054906101000a900473ffffffffffffffffffffffffffffffffffffffff1673ffffffffffffffffffffffffffffffffffffffff167f8b4c9c8a607d67b321582dd8461041b1dc2ceeca70c8b7f37f8e02095cf2e76d86856002015486600301546040516107f79392919061118e565b60405180910390a45050610809610ae8565b50565b6000600154905090565b61081e610aa2565b60008111610861576040517f08c379a000000000000000000000000000000000000000000000000000000000815260040161085890611211565b60405180910390fd5b6001600081548092919061087490611231565b91905055508273ffffffffffffffffffffffffffffffffffffffff166323b872dd3330856040518463ffffffff1660e01b81526004016108b693929190611157565b600060405180830381600087803b1580156108d057600080fd5b505af11580156108e4573d6000803e3d6000fd5b505050506040518060c0016040528060015481526020018473ffffffffffffffffffffffffffffffffffffffff1681526020018381526020018281526020013373ffffffffffffffffffffffffffffffffffffffff168152602001600015158152506002600060015481526020019081526020016000206000820151816000015560208201518160010160006101000a81548173ffffffffffffffffffffffffffffffffffffffff021916908373ffffffffffffffffffffffffffffffffffffffff160217905550604082015181600201556060820151816003015560808201518160040160006101000a81548173ffffffffffffffffffffffffffffffffffffffff021916908373ffffffffffffffffffffffffffffffffffffffff16021790555060a08201518160040160146101000a81548160ff0219169083151502179055509050503373ffffffffffffffffffffffffffffffffffffffff168373ffffffffffffffffffffffffffffffffffffffff167f655a0cf9c8db81512be9a76dc1c5ae5380b8816ce6ad659cd61b715e2999d59a6001548585604051610a8d9392919061118e565b60405180910390a3610a9d610ae8565b505050565b600260005403610ade576040517f3ee5aeb500000000000000000000000000000000000000000000000000000000815260040160405180910390fd5b6002600081905550565b6001600081905550565b6040518060c0016040528060008152602001600073ffffffffffffffffffffffffffffffffffffffff1681526020016000815260200160008152602001600073ffffffffffffffffffffffffffffffffffffffff1681526020016000151581525090565b600080fd5b6000819050919050565b610b6e81610b5b565b8114610b7957600080fd5b50565b600081359050610b8b81610b65565b92915050565b600060208284031215610ba757610ba6610b56565b5b6000610bb584828501610b7c565b91505092915050565b610bc781610b5b565b82525050565b600073ffffffffffffffffffffffffffffffffffffffff82169050919050565b6000819050919050565b6000610c12610c0d610c0884610bcd565b610bed565b610bcd565b9050919050565b6000610c2482610bf7565b9050919050565b6000610c3682610c19565b9050919050565b610c4681610c2b565b82525050565b6000610c5782610bcd565b9050919050565b610c6781610c4c565b82525050565b60008115159050919050565b610c8281610c6d565b82525050565b60c082016000820151610c9e6000850182610bbe565b506020820151610cb16020850182610c3d565b506040820151610cc46040850182610bbe565b506060820151610cd76060850182610bbe565b506080820151610cea6080850182610c5e565b5060a0820151610cfd60a0850182610c79565b50505050565b600060c082019050610d186000830184610c88565b92915050565b610d2781610c4c565b82525050565b6000602082019050610d426000830184610d1e565b92915050565b610d5181610b5b565b82525050565b6000602082019050610d6c6000830184610d48565b92915050565b610d7b81610c2b565b82525050565b610d8a81610c6d565b82525050565b600060c082019050610da56000830189610d48565b610db26020830188610d72565b610dbf6040830187610d48565b610dcc6060830186610d48565b610dd96080830185610d1e565b610de660a0830184610d81565b979650505050505050565b6000610dfc82610bcd565b9050919050565b6000610e0e82610df1565b9050919050565b610e1e81610e03565b8114610e2957600080fd5b50565b600081359050610e3b81610e15565b92915050565b600080600060608486031215610e5a57610e59610b56565b5b6000610e6886828701610e2c565b9350506020610e7986828701610b7c565b9250506040610e8a86828701610b7c565b9150509250925092565b7f4e487b7100000000000000000000000000000000000000000000000000000000600052601160045260246000fd5b6000610ece82610b5b565b9150610ed983610b5b565b9250828201905080821115610ef157610ef0610e94565b5b92915050565b6000610f0282610b5b565b9150610f0d83610b5b565b9250828202610f1b81610b5b565b91508282048414831517610f3257610f31610e94565b5b5092915050565b7f4e487b7100000000000000000000000000000000000000000000000000000000600052601260045260246000fd5b6000610f7382610b5b565b9150610f7e83610b5b565b925082610f8e57610f8d610f39565b5b828204905092915050565b600082825260208201905092915050565b7f4974656d20646f65736e27742065786973742100000000000000000000000000600082015250565b6000610fe0601383610f99565b9150610feb82610faa565b602082019050919050565b6000602082019050818103600083015261100f81610fd3565b9050919050565b7f4e6f7420656e6f75676820657468657220746f20636f766572206974656d207060008201527f7269636520616e64206d61726b6574206665652e000000000000000000000000602082015250565b6000611072603483610f99565b915061107d82611016565b604082019050919050565b600060208201905081810360008301526110a181611065565b9050919050565b7f4974656d20616c726561647920736f6c64210000000000000000000000000000600082015250565b60006110de601283610f99565b91506110e9826110a8565b602082019050919050565b6000602082019050818103600083015261110d816110d1565b9050919050565b600061111f82610b5b565b915061112a83610b5b565b925082820390508181111561114257611141610e94565b5b92915050565b61115181610df1565b82525050565b600060608201905061116c6000830186611148565b6111796020830185611148565b6111866040830184610d48565b949350505050565b60006060820190506111a36000830186610d48565b6111b06020830185610d48565b6111bd6040830184610d48565b949350505050565b7f5072696365206d75737420626520677261746572207468616e207a65726f2e00600082015250565b60006111fb601f83610f99565b9150611206826111c5565b602082019050919050565b6000602082019050818103600083015261122a816111ee565b9050919050565b600061123c82610b5b565b91507fffffffffffffffffffffffffffffffffffffffffffffffffffffffffffffffff820361126e5761126d610e94565b5b60018201905091905056fea2646970667358221220728593bb2b4c78fb3a3800b5ed11f4a9e7f2cec659d8f085cbf86006cb5a999d64736f6c63430008140033",
  "linkReferences": {},
  "deployedLinkReferences": {}
}